:100000000C948B020C94D2020C94D2020C94D21D4C
:100010000C94D2020C94D2020C94D2020C94D20210
:100020000C94D2020C94D2020C9416260C94E8265E
:100030000C9492200C94D2020C94D2020C94D20212
:100040000C94D2020C94D2020C94D2020C94D202E0
:100050000C94D2020C9407210C94D2020C94D2027C
:100060000C94D2020C94D2020C94D2020C94D202C0
:100070000C94D2020C94D2020C94D2020C94D202B0
:100080000C94D2020C94D2020C94D2020C94D202A0
:100090000C94D2020C94D2020C94D2020C94D20290
:1000A0000C94D2020C94D2020C94D2026806680618
:1000B0009A069A06E7060507E807E8071007780793
:1000C00089078907880888089A089A0891089A0871
:1000D0009A089A088808880896089A089A0896083C
:1000E000CE18D118F11802190A1915195B195B19E4
:1000F0005B195B195B1918191B1920192D193A196D
:100100003D1941194E1955277C2774287C277428DE
:10011000C827EB2774284228512829001E001F00F9
:100120002000210022002B0014001A0008001500F6
:100130001700E00004001600070009000A00E100B3
:100140001D001B00060019000500E200E30000008E
:10015000E0002C002C42230024002500270027006B
:100160002D001C0018000C00120013002A000B00C8
:100170000D000E000F002D002800110010003600A9
:1001800037005200E5002C412C00E40050005100E3
:100190004F0029001E001F002000210022002B001C
:1001A0001E001F00200021002200E0001E021F028E
:1001B000200221022202E1001D001B00060019009E
:1001C0000500E200E3000000E0002C002C422300C8
:1001D00024002500270027002D00230024002500EF
:1001E000270027002A0023022402250226022702D4
:1001F000280011001000360037005200E5002C41A5
:100200002C00E400500051004F0029001E001F0088
:100210002000210022002B001E001F0020002100D2
:100220002200E0001E021F02200221022202E10041
:100230001D001B00060019000500E200E30000009D
:10024000E0002C002C42230024002500270027007A
:100250002D00230024002500270027002A00230268
:100260002402250226022702280011001000360071
:1002700037005200E5002C412C00E40050005100F2
:100280004F0029001E001F002000210022002B002B
:100290001E001F00200021002200E0001E021F029D
:1002A000200221022202E1001D001B0006001900AD
:1002B0000500E200E3000000E0002C002C422300D7
:1002C00024002500270027002D00230024002500FE
:1002D000270027002A0023022402250226022702E3
:1002E000280011001000360037005200E5002C41B4
:1002F0002C00E400500051004F00000000000000FE
:1003000000002A2B28000000000000000000000070
:10031000000000000029000000002C1E34202122D3
:1003200024342627252E362D3738271E1F2021223C
:10033000232425263333362E37381F0405060708B5
:10034000090A0B0C0D0E0F101112131415161718A5
:10035000191A1B1C1D2F3130232D350405060708E3
:10036000090A0B0C0D0E0F10111213141516171885
:10037000191A1B1C1D2F3130354C000000000000E5
:10038000000000000000000000000000000000006D
:1003900000000000000000000000000000007E0FD0
:1003A00000D4FFFFFFC700000078100363006F0058
:1003B0006F006C0039003500390000000A036D0041
:1003C0002E006B00690000000403090409025B00B1
:1003D000030100A0FA090400000103010100092142
:1003E000110100012240000705810308000A0904E9
:1003F0000100020300000009211101000122220076
:1004000007058203200001070503032000010904FA
:1004100002000103000000092111010001227B00FC
:100420000705840320000A120100020000000843AF
:100430004D59090100010200010660FF0961A10197
:100440000962150026FF00952075088102096315D1
:100450000026FF00952075089102C005010902A140
:100460000185020901A100050919012908150025C6
:1004700001950875018102050109300931158125B1
:100480007F95027508810609381581257F950175CC
:10049000088106050C0A38021581257F950175082B
:1004A0008106C0C005010980A101850319012AB791
:1004B00000150126B700950175108100C0050C09D3
:1004C00001A101850419012AA002150126A00295A7
:1004D0000175108100C005010906A101050719E099
:1004E00029E7150025019508750181029501750818
:1004F00081010507190029FF150026FF00950675E3
:1005000008810005081901290595057501910295D5
:100510000175039101C011241FBECFEFDAE0DEBFE9
:10052000CDBF04B603FE27C08091A4029091A5021E
:10053000A091A602B091A7028730904BA740B04B84
:10054000D1F41092A4021092A5021092A602109269
:10055000A70214BE84B7877F84BF0FB6F894A8950E
:1005600080916000886180936000109260000FBEEF
:10057000E0E0F8E3099511E0A0E0B1E0E2E9F2E59E
:1005800002C005900D92A83BB107D9F722E0A8EB75
:10059000B1E001C01D92A43AB207E1F70E948215B2
:1005A0000C9447290C94000081E0089581E008959F
:1005B0000C94D60208950C94DA021F93CF93DF9324
:1005C00000D000D01F92CDB7DEB749835A836B832A
:1005D0003091BA0189819A81311114C0662359F092
:1005E000222349F00E948009182F682F89819A815F
:1005F0000E94270903C00E945309182F69817A813C
:10060000812F04C00E94800969817A810F900F9028
:100610000F900F900F90DF91CF911F910C942D1A96
:10062000FC01262F408151816281738184810C9469
:10063000DD0281E00895CF93DF93EC0160E00E943A
:100640001003BE01DF91CF910C94DB02E1E0F0E0FA
:10065000DF0102C0AA0FBB1F6A95E2F7BD01DF01EF
:1006600002C0AA0FBB1F4A95E2F7AD01462B01C09D
:10067000EE0F2A95EAF7942F9823491302C08E2B88
:100680000895E0958E230895242F462F682F80919A
:10069000D3010E9426030C94E4080E946B110E946F
:1006A00097040C949B110C94971108950E9476085E
:1006B0000E9455032FEF84E39CE02150804090403E
:1006C000E1F700C000000C942D210F931F93CF93EE
:1006D000DF938C0161E00E941003EC01B8010E94DD
:1006E0007D18882309F444C0B801CE010E94D802C5
:1006F0008823F1F1B801CE010E947A1B8823C1F151
:10070000B801CE010E94CC1B882391F1B801CE0123
:100710000E94FE1C882361F1F8018281882309F17F
:10072000CA358DE5D807C1F050F4C115FCE5DF07E7
:1007300081F0CE3DDC45A9F40E947B0E19C0CB357B
:10074000EDE5DE0761F0CC35DD4559F40E940D0D75
:1007500008C00E9456030CC00E94160D02C00E94E1
:10076000190DC801DF91CF911F910F910C94D40204
:1007700080E0DF91CF911F910F910895DF92EF926A
:10078000FF920F931F93CF93DF93E82FF0E0E65093
:10079000FD4FD490282F26952695269530E0F90117
:1007A000E656FC4F0491877010E0082E02C01595A4
:1007B00007950A94E2F701701127F901E657FC4FFB
:1007C000E490F12C082E02C0F594E7940A94E2F725
:1007D00091E0E922FF24F901E658FC4FC491D0E0F2
:1007E00002C0D595C7958A95E2F7C170DD2701153E
:1007F000110519F081EE0E94F104E114F10419F0E1
:1008000086EE0E94F1048D2D0E941A06EF2819F041
:1008100086EE0E949B05012B19F081EE0E949B053C
:10082000CD2B51F08CE2DF91CF911F910F91FF9072
:10083000EF90DF900C941A06DF91CF911F910F91EA
:10084000FF90EF90DF900895EF92FF920F931F9328
:10085000CF93DF93EC01162F0AE08881882309F4F7
:1008600055C0813009F043C08981813041F47E0157
:1008700082E0E80EF11C8A810E941A0609C08230CB
:1008800049F47E01E2E0EE0EF11C8A810E94F1043F
:10089000E7012FC0833041F47E01F2E0EF0EF11C3E
:1008A0008A810E949B05F4CF843011F0219621C0EB
:1008B0002A81229680E090E030E0205331092A30EE
:1008C000310558F4089FA001099F500D1124C9015A
:1008D000840F951F21962881EFCF009751F0EFE903
:1008E000FFE03197F1F700C000000197F6CF0E94BA
:1008F000BE032196812F882309F4AFCFEFE9FFE0F3
:100900003197F1F700C000008150F5CFDF91CF9112
:100910001F910F91FF90EF90089560E00C942404D4
:1009200008950C94900481E008950C949304089524
:10093000CF93C82F0E9491048C2F0E949504CF91D1
:100940000895CF93DF93CDB7DEB72B970FB6F8940A
:10095000DEBF0FBECDBF4F83588769877A878B87ED
:1009600061110E943C0D9E012F5F3F4F86E0F9010F
:1009700011928A95E9F785E0FE013796D901019039
:100980000D928A95E1F789819A814C815D81452B91
:1009900031F09F3F31F491E08F3F19F403C091E0B3
:1009A00001C090E090FF09C049815A816B817C8130
:1009B0008D819E810E943C0C05C0C9010E941903D3
:1009C0008111F2CF2B960FB6F894DEBF0FBECDBFCC
:1009D000DF91CF910895FC01808191810E94AD0942
:1009E0000895CF93882309F4A4C0C82F8238C1F496
:1009F0000E94561F81FD9DC069E380910001909186
:100A000001010E94F01F0E94610D2FEF81EE94E022
:100A1000215080409040E1F700C0000069E319C018
:100A2000833801F50E94561F80FD83C063E58091E5
:100A30000001909101010E94F01F0E94610D2FEFB3
:100A400081EE94E0215080409040E1F700C000002A
:100A500063E580910001909101010E94F21FCF9106
:100A60000C94610D8438C1F40E94561F82FD61C050
:100A700067E480910001909101010E94F01F0E94A3
:100A8000610D2FEF81EE94E0215080409040E1F71E
:100A900000C0000067E4DDCF8CEF8C0F813AD0F40A
:100AA0006C2F80910001909101010E94BA1F882350
:100AB00049F06C2F80910001909101010E94F21F7A
:100AC0000E94610D6C2F80910001909101010E94A4
:100AD000F01FC5CF80E28C0F883048F4C77081E0EA
:100AE00001C0880FCA95EAF70E941F0DB8CFEBE549
:100AF000EC0FE33040F4F0E0EE59FE4F808190E0DF
:100B0000CF910C94821FE8E5EC0FE73150F4F0E050
:100B1000EE0FFF1FEC5CFE4F80819181CF910C9412
:100B2000981FC03F30F08C2F0E940F16CF910C946D
:100B3000E116CF910895882309F464C0823879F4CE
:100B40000E94561F81FF5EC069E380910001909171
:100B500001010E94F01F0E94610D69E310C08338FB
:100B6000B1F40E94561F80FF4DC063E580910001E3
:100B7000909101010E94F01F0E94610D63E5809138
:100B80000001909101010E94F21F0C94610D8438C4
:100B900079F40E94561F82FF35C067E480910001FE
:100BA000909101010E94F01F0E94610D67E4E7CF60
:100BB0009CEF980F913A10F4682FE1CF90E2980FD4
:100BC000983050F4877091E001C0990F8A95EAF748
:100BD000892F0E94250DD9CF9BE5980F933020F4E3
:100BE00080E090E00C94821F98E5980F973120F4F4
:100BF00080E090E00C94981F803F20F00E946A16DD
:100C00000C94E11608951F93CF93DF93182FEB01F7
:100C10000E94F104209741F08FE99FE00197F1F7DE
:100C200000C000002197F6CF812FDF91CF911F9157
:100C30000C949B05893319F060E070E002C060E518
:100C400070E00C940306882321F00E941F0D0C9481
:100C5000610D0895882321F00E94250D0C94610DEB
:100C60000895CF92DF92EF92FF920F931F93CF934D
:100C7000DF937C01062FC72FFC01D28115811295CD
:100C80001F700E94F40C882399F0DD2389F08C2FCB
:100C9000807F803421F080E2800F883048F082E04D
:100CA0000E94B10D0E94F40C91E0D82ED92601C00B
:100CB000D12CCC2EC2948FE0C8228C2D90E08C30A9
:100CC000910508F085C1FC01EA5AFF4F0C94CE282B
:100CD0008C2F807FCF70882311F0C295C07FDD23D9
:100CE00099F0CC2309F460C180E2800F883010F0C5
:100CF000011104C08C2F0E941F0D03C08C2F0E9475
:100D00002F0D0E94610D50C1802F0E949B05CC23A6
:100D100009F45EC180E2800F883010F0011104C038
:100D20008C2F0E94250D03C08C2F0E94350D0E9430
:100D3000610D4EC18C2F807FCF70803211F0C29533
:100D4000C07F002319F00130C9F022C0DD2371F00B
:100D5000112341F0113031F40E94420D8C2B0E947E
:100D60004A0D36C10E94420D8C2B1DC0112319F073
:100D7000113009F42DC10E94570D25C0DD2321F04B
:100D8000163008F025C10EC0153008F021C11BC077
:100D9000DD2361F0112331F0F701858180FF04C16B
:100DA0008F7085838C2F0E94230612C1112359F066
:100DB000093309F00AC1FFEF27EE83E0F15020402C
:100DC0008040E1F700C18C2F0E942A0601C18C2FC0
:100DD00086958695837019F0813061F0F9C0DD2326
:100DE00021F0802F9C2F937002C080E090E00E9441
:100DF000821FF6C0DD2321F0802F9C2F937002C04C
:100E000080E090E00E94981FEBC0802FDD2319F056
:100E10000E940F1602C00E946A160E94E116E0C0EE
:100E20008C2F837079F5D111D7C0402F429546950C
:100E30004770440F440F202F2F70042E01C0220F43
:100E40000A94EAF704FF08C08FE090E001C0880F21
:100E50004A95EAF7809501C080E0C695C695C370B3
:100E6000822BC23049F058F4C13019F00E94D808E2
:100E7000B3C00E94D308B0C00E94DD08ADC00E947C
:100E8000D108AAC0DD2319F08C2F817001C086958E
:100E9000882309F4A1C0402F429546954770440F1E
:100EA000440F202F2F70042E01C0220F0A94EAF75E
:100EB00004FF08C08FE090E001C0880F4A95EAF770
:100EC000809501C080E0C695C695C370822BC23064
:100ED00049F058F4C13019F00E941C097DC00E94ED
:100EE00017097AC00E94210977C00E94E40874C0E3
:100EF000CF70DD2339F08C2F0E94F508802F0E94DF
:100F000023066AC0802F0E942A068C2F0E940009A7
:100F100063C0023F01F128F4003F41F0013FA1F01E
:100F20003FC0033FF9F0043F39F13AC0DD2341F0FF
:100F3000153008F04DC08C2F8F710E940C0948C0ED
:100F4000163008F045C0F7CFDD2339F08C2F8F71B4
:100F50000E94F5083DC0DD23C9F38C2F8F710E94DC
:100F6000000936C0DD2329F08C2F8F710E94ED0817
:100F70002FC00E94EA082CC0DD2349F0CF718C2FCE
:100F80000E94F50863E08C2F0E94960D21C081E03D
:100F90000E94B10D1230E0F082E00E94B10D18C045
:100FA000DD2331F0112391F2802F0E94F10410C053
:100FB000112399F2093349F49FEFE7EEF3E09150E2
:100FC000E040F040E1F700C00000802F0E949B0548
:100FD00088EF8C0D843020F40E94561F0E949804E4
:100FE000DD20C9F00E94F00C80FD15C0F7011282CF
:100FF0000E94EA0C0E94F508C7010E942C080E947A
:10100000EA0CDF91CF911F910F91FF90EF90DF904D
:10101000CF900C940009DF91CF911F910F91FF9019
:10102000EF90DF90CF9008950F931F93CF93DF93AE
:10103000EC01688179818A810E94B8098C010E9443
:1010400026090E94C508B801CE010E943106DF9131
:10105000CF911F910F910895CF93DF93EC01988169
:1010600089812B813C81232B31F08F3F31F481E04A
:101070009F3F19F403C081E001C080E080FD19C0EA
:10108000CE010E94650381110CC00E94F40C8823DC
:1010900081F08A81882369F082E0DF91CF910C94FE
:1010A000B10DCE010E941408CE01DF91CF910C94B6
:1010B0001B03DF91CF91089580E090E00E94821F92
:1010C00080E090E00E94981F0E943C0D0E943F0D1E
:1010D0000E94610D0E9412180C94E116809100018B
:1010E000909101010E94F41F0C945C080E942C0D49
:1010F0000C946E08E92FE295EF704E2F50E0FA0144
:101100003297EE30F105B0F4EE59FF4F0C94CE2833
:10111000803F91F018F4883E68F40EC0843F51F48B
:101120000BC0883E48F0813F29F406C093FB882716
:1011300080F9089580E0089581E00895FC018081A0
:1011400091810E94AD090E947A080895CF93DF93A0
:1011500000D000D01F92CDB7DEB70F900F900F9048
:101160000F900F90DF91CF910895CF93DF9300D030
:1011700000D000D0CDB7DEB726960FB6F894DEBF0C
:101180000FBECDBFDF91CF910895089508950C94BF
:10119000C6080C94C7080E94C9088093D4010C9417
:1011A0005C080C94CB089091D401892B0C94CB084B
:1011B0009091D40189230C94CB089091D401892774
:1011C0000C94CB080C94C6080E94E2088093D301CB
:1011D0000C945C0880E00C94E40891E001C0990F45
:1011E0008A95EAF7892F0C94E40821E030E001C0E9
:1011F000220F8A95EAF78091D301822B0C94E408A0
:1012000021E030E001C0220F8A95EAF72095809115
:10121000D30182230C94E40821E030E001C0220FC6
:101220008A95EAF78091D30182270C94E408909183
:10123000D301892B0C94E4089091D30189230C9459
:10124000E4089091D30189270C94E4080895292F8C
:10125000220F920F990F890FE82FE695E695E695F4
:10126000877051E001C0550F8A95EAF783E0E89F47
:10127000F0011124E554FE4F20E030E070E04081A1
:10128000CB01022E02C0969587950A94E2F78170F1
:10129000819584278523842781932F5F3F4F2330B7
:1012A000310569F70895292F220F920F990F890FA1
:1012B000682F669566956695982F977083E0689F6E
:1012C000B001112440E050E080E0FB01E40FF51F85
:1012D000E554FE4F208130E0092E02C03695279557
:1012E0000A94E2F721703327042E01C0220F0A94DA
:1012F000EAF7822B4F5F5F4F4330510531F7089576
:10130000CF92DF92FF920F931F93CF93DF936C01E5
:101310000091D3018091D401082BC7E0D0E010E008
:10132000C8010C2E02C0959587950A94E2F780FDBE
:1013300004C02197A8F7F12C07C0FC2EB6018C2F12
:101340000E9475100197A9F38F2DDF91CF911F9106
:101350000F91FF90DF90CF900895CF93DF93EC0132
:101360000E948009BE010E947510DF91CF910895FF
:101370001F93CF93DF93EB019091BA01992321F052
:10138000CB010E94AD0913C0882349F0CB010E9414
:101390008009182F682FCE010E94270904C0CB01B5
:1013A0000E945309182FBE01812F0E947510DF91F2
:1013B000CF911F9108951F93CF93DF93C091D501D3
:1013C00016E08091D601C81799F0D0E01C9FF0017B
:1013D0001D9FF00D1124E952FE4F40815181628121
:1013E0007381848195810E94B5082196C770E9CFE9
:1013F000DF91CF911F91089540910702509108020B
:101400006091090270910A0280910B0290910C0286
:101410000C94B5080F931F93CF93DF9380910C0228
:1014200082958F7009F05DC080910902882309F4CC
:1014300058C08091D5011091D6016091070270913A
:101440000802C0910A02D0910B0291E06F3F09F0AF
:1014500090E0292F06E0811709F443C0209721F07E
:101460007F3F21F030E003C031E001C0322F90E037
:1014700030FD34C0089FF001099FF00D1124DF01F9
:10148000A952BE4F11963C911197371327C03C913A
:10149000361324C012963C91129731111FC0139637
:1014A0004D915C9114974C1B5D0B483C5105B0F479
:1014B00080910C028F70806180930C02E452FE4F89
:1014C00080818F708061808387E092E00E942C0889
:1014D000DF91CF911F910F910C94DB0901968770DA
:1014E000BACFDF91CF911F910F9108959F92AF9244
:1014F000BF92CF92DF92EF92FF920F931F93CF9301
:10150000DF93CDB7DEB761970FB6F894DEBF0FBE9D
:10151000CDBF8C0185E0F801DE011D9601900D9292
:101520008A95E1F7F801E280909107026091080244
:1015300020910A0230910B022115310531F06F3FE5
:1015400031F481E09F3F19F403C081E001C080E0E5
:10155000F82FF1709F2E80FD3FC1F801408151812D
:10156000A380B48087E0C82E82E0D82EF0900902D4
:10157000F501E21BF30BFF2009F4D9C080910C02A6
:10158000E83CF10508F095C0282F207F09F052C0F3
:10159000561313C0491311C0FE2CE1100EC08F70FA
:1015A000806180930C020E94FC09C6010E942C08F5
:1015B00080910C02F80185834CC1AB2831F05F3F6C
:1015C00031F481E04F3F19F403C081E001C080E0B5
:1015D00080FD03C081E08E2502C080E090E0F82FFE
:1015E000F170FF2E80FF1CC08091D5012091D601A3
:1015F00036E0821709F40BC190E0389FF001399F63
:10160000F00D1124E952FE4F6181561306C060812E
:10161000461303C06281E61203C001968770E9CFCA
:10162000FE2CEE2009F415C180910C02816080939C
:101630000C0254C0561306C0491304C0E11002C086
:10164000F80199C0C8010E949E08882361F1EE202C
:1016500051F120910C02822F82958F7090E00297B9
:1016600074F0809107029091080298878F83198601
:10167000BB86AA862C87CE0107960E942C0886E09E
:10168000F801A7E0B2E001900D928A95E1F70E947F
:101690000A0A0E94FC090AC0561711F1C8010E94EB
:1016A0009E0881112CC0C8010E942C08FF24F394CD
:1016B000D0C0282F207F81F77A2DB98AA88A6E2D75
:1016C00089890E94A60887E092E00E942C0886E0A3
:1016D000F60111928A95E9F70E94FC09F12CB9C034
:1016E0004913DCCFE110DACFF8018583C8010E94ED
:1016F0002C0886E0F60111928A95E9F7AAC0EE203F
:1017000091F220910C02822F82958F7090E00297C7
:101710000CF4B5CF80910702909108029A838983D7
:101720001B82BD82AC822E83CE010196A6CFE83CFF
:10173000F10508F044C0FE2CEE2009F4B4CF561396
:1017400030C049132EC020910C0220FD21C0822FF1
:1017500082958F70482F50E041155105C9F0F8016E
:1017600025834F30510541F08F5F982F9295907FE0
:10177000822F8F70892B8583C8010E942C0886E0F8
:10178000F801A7E0B2E001900D928A95E1F73CC024
:1017900086E0F801A7E0B2E001900D928A95E1F7AA
:1017A00058C0C8010E949E08811169CF80910C0227
:1017B000816080930C02C8010E942C084AC07A2DD7
:1017C000B98AA88A6E2D89890E94A60886E0F6014A
:1017D00011928A95E9F718C0EE2009F464CFC80188
:1017E0000E949E08F82E882309F45DCF86E0F80158
:1017F000A7E0B2E001900D928A95E1F787E092E0D0
:101800000E94EB040E940A0A0E94FC0922C04D8734
:101810005E878D859E850E94AD09292F22952F70A8
:10182000223028F49F7039F0811105C00BC024309C
:1018300028F49F7049F4805E883020F0C8010E942F
:101840002C089F2CF92C05C0F8019581907F99F701
:10185000F9CF8F2D61960FB6F894DEBF0FBECDBFC6
:10186000DF91CF911F910F91FF90EF90DF90CF907C
:10187000BF90AF909F9008951F93CF93DF93CDB704
:10188000DEB72C970FB6F894DEBF0FBECDBF4F83E7
:10189000588769877A878B879C87CE0107960E9435
:1018A000760A8823D1F09F8188852A853B85232B62
:1018B00031F08F3F31F481E09F3F19F403C081E0A4
:1018C00001C080E080FD47C04F81588569857A85D9
:1018D0008B859C850E94B5083EC086E0FE01379648
:1018E000DE01119601900D928A95E1F7FF81E8855E
:1018F0006A857B856115710531F0EF3F31F481E038
:10190000FF3F19F403C081E001C080E080FD23C0E7
:101910002091D60130E0C901019687709927409146
:10192000D50150E084179507F1F1F983EA837D83AF
:101930006C8396E0929FD001939FB00D1124A95221
:10194000BE4FFE01319601900D929A95E1F780937A
:10195000D6010E94DB0916E08091D5019091D60155
:10196000891771F1189FC001112489529E4F0E945E
:10197000760A882329F1E091D5011E9FF0011124F8
:10198000E952FE4F4081518162817381848195814A
:101990000E94B5088091D50190E001968770992743
:1019A0008093D501D9CF0E9476081092D60110926B
:1019B000D501E7E0F2E086E0DF011D928A95E9F7C4
:1019C0002C960FB6F894DEBF0FBECDBFDF91CF913E
:1019D0001F91089580910D028595859585950895AF
:1019E00080910D028770089590910D02977081E0AB
:1019F00009F480E008959091770292FB222720F964
:101A0000281751F080FB92F990937702809176022B
:101A1000909177020C94F80D08958091770282FBE3
:101A2000882780F991E089270C94FB0C81E00C94C5
:101A3000FB0C80E00C94FB0C8091190208959091AE
:101A40001902892B809319020895809590911902AB
:101A50008923809319020895109219020895909194
:101A60001802892B8093180208958095909118028E
:101A700089238093180208951092180208951092F5
:101A80001702089580910E02089508950C94450D53
:101A90000C94460D9091770292FD08C090910E0231
:101AA000981721F080930E020C94480D08958091B0
:101AB0000E02882329F010920E0280E00C94480D4B
:101AC0000895E0910001F091010180911902808355
:101AD000E0910001F0910101908180911802892B21
:101AE0008083E0910001F0910101908180911702C3
:101AF000892B808380910E02882381F0E091000180
:101B0000F09101019081892B808380910001909157
:101B100001010E94AE1F81110E94570D80910001AA
:101B2000909101010C94691F0C94450D90917702DE
:101B300092FD10C098E0899F90011124262B2093DC
:101B40000D020E94F50880910D0285958595859579
:101B50000C94940D0C94F50810920D0280E00C94F6
:101B6000940D20910D028095822380930D02982F71
:101B7000977041F430E0482F082E000C550B2417C5
:101B8000350721F49091770292FF07C085958595DE
:101B900085950E9400090C94AC0D08956FEF7FEFBE
:101BA00080E090E00C94312980E090E00E940D29C3
:101BB000893E9E4F11F40C94201880E0089582E035
:101BC00090E00C94052983E090E00C940529CF93D4
:101BD00084E090E00E940529C82F82E290E00E94F4
:101BE00005292C2F30E0A901582BCA01CF91089567
:101BF000CF93C92F682F84E090E00E9413296C2FA7
:101C000082E290E0CF910C941329AB01BC018FE0EC
:101C100090E00C942529AB01BC0183E190E00C9489
:101C2000252960E070E0CB010C940B0E60E070E0C1
:101C3000CB010E94050E0C94110E69EE7EEF80E040
:101C400090E00E94312960E082E090E00E94132938
:101C500060E083E090E00E9413291092D40160E0DC
:101C600084E090E00E94132960E082E290E00E940C
:101C7000132960E085E090E00E94132960E086E08F
:101C800090E00E9413296FEF87E090E00E941329F3
:101C900040E050E0BA0188E090E00E94252960E031
:101CA0008DE090E00E94132940E050E0BA0188E105
:101CB00090E00E94252960E087E190E00E941329CE
:101CC00040E050E0BA018CE190E00E94252960E0FC
:101CD00070E080E290E00E94312940E050E0BA01DB
:101CE00088E190E00E94252980E00E9439180E9436
:101CF00065180C94160E0C941D0E682F8EE090E063
:101D00000C9413290E94D0206093290270932A0218
:101D100080932B0290932C026093250270932602ED
:101D20008093270290932802089585B7806885BF25
:101D300085B7806885BF08950C94501308950C945E
:101D40009E0E0C949E0E0C94A10E0C949E0E0C9460
:101D5000A50E0C949E0E0E94950E81E591E10E94C5
:101D60003E210E94A90E0C94A70E0E949F0E0C9477
:101D70009E0E0E94BB200E94FB1F0E9474180E94AE
:101D80004B120E94EF1A0C94A30E9F92AF92BF9237
:101D9000CF92DF92EF92FF920F931F93CF93DF9337
:101DA000CDB7DEB72A970FB6F894DEBF0FBECDBF12
:101DB0000E94C51281110E94820E8BE1A82E82E042
:101DC000B82E00E010E0902E802F0E948511D82EB2
:101DD000F501C1905F01C826B1F40F5F1F4F0A30B3
:101DE000110589F78FEF89838A831B820E94C420A3
:101DF0008160782F9D838C8349815A816B818D818D
:101E00000E94A1042FC080912D0281FD0E948B11A0
:101E1000E12CFF24F3948C2D8F21F1F00E949C0E75
:101E2000882399F0EE829F82DF2081E009F480E030
:101E300088870E94C4208160782F9A8789874E8185
:101E40005F8168858A850E94A104F801E55EFD4FE7
:101E50008081F826F08206C0E394FF0CF6E0EF12D2
:101E6000DACFBBCF0E94FF160E94561F90911A0234
:101E70008917B9F00E94561F80931A022A960FB64E
:101E8000F894DEBF0FBECDBFDF91CF911F910F91B0
:101E9000FF90EF90DF90CF90BF90AF909F900C9409
:101EA00098042A960FB6F894DEBF0FBECDBFDF911F
:101EB000CF911F910F91FF90EF90DF90CF90BF9047
:101EC000AF909F900895CF93DF930E947A10EC011A
:101ED000811521E5920708F045C0811530E593078B
:101EE00008F094C0883E910528F5803E910508F0E1
:101EF000F8C0883A910570F4853A910508F07CC0E5
:101F00008130910509F475C008F4E8C0049708F021
:101F1000E8C0E4C08F3B910508F0E0C0C85AD0E0AB
:101F2000CC0FDD1FCB59DE4F0990D881C02DCE01DB
:101F30009464D8C0811540E2940758F4811551E0AB
:101F4000950708F0CEC0803F910508F4C7C09065A2
:101F5000C9C0C11580E4D80708F4C0C0DF70CE0145
:101F6000906AC0C0811525E59207A8F4811534E573
:101F7000930708F095C0811543E5940708F07BC0EE
:101F8000811552E5950708F061C0D82FCC27CE0106
:101F9000816F906AA7C0C11589E5D807A0F4C11563
:101FA00028E5D20708F082C0C11536E5D30708F04E
:101FB00095C08C2F0E940E118F7190E0D82FCC27E6
:101FC000CE0190628FC0C1154AE5D40708F474C0F1
:101FD000CE0190568115904208F080C08D2F8F71F0
:101FE0000E940E11DD27D0628F71AE01582BCA01FD
:101FF00079C081E090E076C0C55AD0E0CD56DE4F82
:102000008881C82FD0E0CE0190646CC074E09695B2
:1020100087957A95E1F7282F23703C2F337081E064
:1020200090E002C0880F991F3A95E2F79C68AC01D6
:10203000522B9A019C2F9F709695969550E2959FF2
:10204000E0011124C9018C2B9D2B4CC08370992772
:1020500021E030E002C0220F331F8A95E2F79C2F67
:102060009695969580E2989FE0011124C22BD32B80
:10207000CE019C6837C08370992721E030E002C010
:10208000220F331F8A95E2F79C2F9695969540E292
:10209000949FE0011124C22BD32BCE019A6822C059
:1020A000D82FCC27CE01846F906A1CC0DC2FCC27A0
:1020B000CE01806F906A16C08C2F8F700E940E1117
:1020C00094E0D695C7959A95E1F7CF70D0E0DC2FD4
:1020D000CC27D0699E01282BC90104C080E090E084
:1020E00001C0CE01DF91CF9108950E942D1A0E9468
:1020F000630F08958238910569F1B0F48133910539
:1021000009F46DC048F48932910509F463C08A323C
:10211000910509F469C008958533910509F455C006
:1021200089339105B9F00895833E910569F138F43A
:10213000803E9105B1F0823E910509F10895863EF9
:102140009105A9F1873E9105B9F1843E910509F009
:1021500064C023C02091760220FD4FC021FD4DC0F8
:1021600008958091760280FD44C08091770280FFBF
:1021700044C08091760284FD42C083EE4DC08091C0
:10218000760282FF38C0F5CF8091760282FD33C09F
:102190008091770280FD31C0ECCF8091770281FF82
:1021A00032C08091760284FD2AC087EE35C08091CE
:1021B000760283FF26C0F5CF8091760283FD21C091
:1021C0008091770281FD1FC0ECCF8091760285FD62
:1021D0001CC01DC08091760285FD19C016C080917B
:1021E000760286FD16C017C08091760286FD13C068
:1021F00010C089E311C082EE0FC080EE0DC080E0F8
:102200000BC086EE09C084EE07C089E205C085E3F5
:1022100003C08AE201C081E390E0089590917602C4
:1022200092FF0DC0282F2871283019F4877F846011
:1022300006C0282F2471243011F48B7F886093FF0F
:102240000DC0282F2871283119F4877E846106C0BB
:10225000282F2471243111F48B7E8861209177021C
:1022600020FF0DC0382F3871383019F4877F816016
:1022700006C0382F3171313011F48E7F886021FF14
:102280000DC0282F2871283119F4877E816106C07E
:10229000282F2171213111F48E7E886194FD877E73
:1022A000089580E008950C94CE0D0E94C5128FE32E
:1022B0009CE90197F1F700C000000E94C51280E080
:1022C0000E94851180FF04C00E9453110C942D219F
:1022D00008950C9455110E94D40D811102C00E94E2
:1022E0007B0E0E94DF0D80932D020E94E70D9093DC
:1022F0007702809376020E9469110E94E30D0E948A
:10230000D1088091D3010C94E208E82FF0E0EE5759
:10231000FD4F80810895089580EA8A95F1F7089528
:1023200000C008950C948C1108950C9494110C9491
:1023300095110C9494110C949911F894E82FE2954E
:10234000EF70F0E031A1282F2F7081E090E001C004
:10235000880F2A95EAF7982F9095932391A392A13D
:10236000892B82A37894089508950C94B4110F9347
:102370001F93CF93DF93C6E9D1E089918F3F11F08E
:102380000E949D1181E0CC39D807B9F7CCE9D1E0A2
:1023900001EA11E089918F3F11F00E949D110C1705
:1023A0001D07C1F7DF91CF911F910F910895DF9223
:1023B000EF92FF920F931F93CF93DF93062F10E0BE
:1023C0000A561E4FE80128812F3F09F45CC0F62E03
:1023D000E92ED82EF894E22FE295EF70F0E081A17B
:1023E0002F70C1E0D0E0AE0102C0440F551F2A9506
:1023F000E2F79A01842B81A382A12095282322A3AE
:1024000078940E9490110F2C01C0CC0F0A94EAF727
:102410003C2F6C2F6095ACE9B1E0ED2DFE2DAF01A6
:102420004B5F5F4FE12C2D912F3FA9F0822F8295BA
:102430008F7090E0EC0188A190E02F7002C095951C
:1024400087952A95E2F780FD06C08081832B8083E3
:10245000EE24E39403C08081862380833196E417C1
:10246000F50709F7F80180818F3F11F00E949D1157
:102470006E2D8F2DDF91CF911F910F91FF90EF90D7
:10248000DF900C949211DF91CF911F910F91FF90EB
:10249000EF90DF9008950E946A138091020180916D
:1024A0000201811102C095E001C090E090938D027D
:1024B00085E0891B80938C020E94B711E8E7F2E067
:1024C000A2E8B2E011921D9282E0E238F807D1F75B
:1024D00085E00E9419130E944D030C9474130F930E
:1024E0001F93CF93DF9300D000D01F92CDB7DEB7FC
:1024F0000E94501360918D02882379F18E010F5F45
:102500001F4F85E0F80111928A95E9F7862F90E038
:10251000B8018E579D4F0E948213E0918C029E015C
:102520002A5F3F4FF0E0EE57FD4FD801882361F05E
:1025300010E08D919081981711F0808311E0319611
:10254000A217B307B1F706C011921D92A217B307E5
:10255000D9F711E00E9453030DC070E06E577D4F14
:1025600080918C0290E08E579D4F0E9412140E9421
:10257000B51110E0812F0F900F900F900F900F90DA
:10258000DF91CF911F910F910895EF92FF920F93DA
:102590001F93CF93DF93CDB7DEB72A970FB6F8948A
:1025A000DEBF0FBECDBF8E010F5F1F4F8AE0F80167
:1025B00011928A95E9F7F12C6F2DC8010E94D7116D
:1025C000F394F6E0FF12F8CF4AE050E0B80188E754
:1025D00092E00E94EF287C0121E0892B09F420E0A1
:1025E000E114F10441F08AE0F801A8E7B2E00190BB
:1025F0000D928A95E1F760918D0270E06E577D4FE4
:1026000045E088E792E00E941A13EF2819F40E942F
:102610006F1202C081E090E02A960FB6F894DEBFF8
:102620000FBECDBFDF91CF911F910F91FF90EF9023
:1026300008950895FF920F931F93CF93DF938C011A
:10264000F62ED72FC42F222349F081E08093300249
:102650000E94C42090932F0280932E02809130021A
:102660008823C1F080912E0290912F020E94DC20DD
:10267000059780F0EF2DFD2FD8014C2F50E0CD01B4
:10268000801B910B841795071CF48D918193F7CFD4
:1026900010923002DF91CF911F910F91FF9008951A
:1026A0008091330281110DC00E94AD28811102C0BA
:1026B00082E001C081E080933302823011F40E94F5
:1026C000A82881E090913302913009F080E00895CC
:1026D0000C9450130E946813809302010E945013BF
:1026E00081110C94BA1308950E945013811102C0F5
:1026F0000C94BC13089581E0909134029A3008F054
:1027000080E008950F931F93CF93DF93EC018B012B
:10271000809134028A3038F4B801CE010E9410143E
:1027200081111DC00AC080913102909132020E9435
:10273000DC20843F914080F715C0809134028F3FA8
:1027400019F08F5F80933402809134028A3060F0F8
:102750000E94C420909332028093310203C01092F1
:10276000340202C080E001C081E0DF91CF911F916F
:102770000F9108950C948C1D0C948F1DEF92FF9275
:102780000F931F93CF93DF937901C82F880FDD0B31
:1027900041155105A9F08AE08C9FF0018D9FF00D45
:1027A0001124ED5FFE4F838194818B5C9D4F2281CC
:1027B00030E04217530708F49A01A9010E94FC284F
:1027C000CE010E94991E892B09F50115110501F111
:1027D0008AE08C9FF0018D9FF00D1124ED5FFE4F7C
:1027E000458150E00417150708F4A8018AE08C9F82
:1027F000F0018D9FF00D1124ED5FFE4F6681778112
:102800006B5C7D4FC7010E94FC2802C080E001C0C4
:1028100081E0DF91CF911F910F91FF90EF9008958C
:102820000C942C150C9448150F931F93CF93DF93A2
:1028300000D000D0CDB7DEB760914C0270914D0250
:1028400080914E0290914F020E94EB2064367105F8
:102850008105910528F10E942120DC01CB0102961F
:10286000A11DB11D89839A83AB83BC8300E010E076
:1028700020E030E044E050E0BE016F5F7F4F82E037
:102880000E94BE13182F882361F00E94D02060930D
:102890004C0270934D0280934E0290934F0201C000
:1028A00011E0812F0F900F900F900F90DF91CF913B
:1028B0001F910F910895AF92BF92CF92DF92EF9246
:1028C000FF920F931F93CF93DF937C015B016A010B
:1028D0000E947B13811103C001E010E002C00AE0F6
:1028E00010E0C1E0D0E0F894B501C701F601099508
:1028F0007894811115C021960C171D0794F0CC9F78
:102900009001CD9F300D300D112480E090E045E323
:102910004A95F1F70000019682179307C1F7E3CFBC
:1029200081E0DF91CF911F910F91FF90EF90DF90A9
:10293000CF90BF90AF900895AF92BF92CF92DF92A9
:10294000EF92FF920F931F93CF93DF9300D000D0AD
:1029500000D0CDB7DEB77B01C090A601D090A70113
:1029600001E010E09E012A5F3F4F40E050E060E050
:1029700070E080E00E94BE13182F882309F43EC047
:1029800056018FEFA81AB80A609148027091490267
:1029900080914A0290914B020E94EB2064367105AF
:1029A0008105910518F105E010E09E012F5F3F4F72
:1029B00040E050E060E070E081E00E94BE13182F1C
:1029C00065E070E0C5010E94F01A91E02E812813A5
:1029D00090E0192339F10E94D0206093480270934F
:1029E000490280934A0290934B0211C065E070E067
:1029F000C5010E94F01A9E818913D5CF85E0F601AA
:102A00003196DE01119601900D928A95E1F711231E
:102A100049F085E0FE013196A3E4B2E001900D9209
:102A20008A95E1F785E0E3E4F2E0D70101900D92A9
:102A30008A95E1F7812F26960FB6F894DEBF0FBE78
:102A4000CDBFDF91CF911F910F91FF90EF90DF905D
:102A5000CF90BF90AF9008950F931F93CF93DF93C4
:102A6000EC018B014CE954E10E945B14882351F086
:102A700044E154E1B801CE01DF91CF911F910F9154
:102A80000C945B1480E0DF91CF911F910F9108951A
:102A90000F931F93CF93DF93F894C091A601D09129
:102AA000A701CE01019625E0FB01DC0101900D920A
:102AB0002A95E1F765E070E00E94F01A8883789427
:102AC000F8946E817F818885998500913F021091ED
:102AD0004002209141023091420260177107820743
:102AE000930751F060933F0270934002809341023C
:102AF000909342020E9404207894DF91CF911F911D
:102B00000F9108950E943C200E94D2220E94EB2245
:102B10000E94FD220E94B50EFBCF8091560280FFDD
:102B20000BC06091260185E0689FB0011124759566
:102B30006795759567952BC081FF09C06091260147
:102B400085E0689FB00111247595679520C082FFCC
:102B500007C06091260185E0689FB001112417C06D
:102B6000909155029923D1F060912501961788F72D
:102B70002091260185E0289F90011124929FA001B9
:102B8000939F500D112470E0CA010E94BA2860384A
:102B9000710540F46115710519F406C065E070E037
:102BA000862F08958FE7089581E008958091560259
:102BB00080FF08C06091220170E07595679575955A
:102BC000679521C081FF06C06091220170E0759574
:102BD000679519C082FF04C06091220170E010C0A7
:102BE00090915402992399F0609121019617A0F7D2
:102BF00080912201899FC001112470E00E94BA28AF
:102C00006038710540F46115710519F406C061E082
:102C100070E0862F08958FE7089581E00895803F42
:102C200021F40E948D15819504C0813F29F40E94F2
:102C30008D1580935A020895823F21F40E948D15CC
:102C4000819504C0833F29F40E948D158093590219
:102C50000895893F19F40E94D61505C08A3F31F4C2
:102C60000E94D615819580935B0208958B3F21F4D5
:102C70000E94D615819504C08C3F29F40E94D61578
:102C800080935C0208959CE0980F953078F421E0E1
:102C900030E0A90102C0440F551F9A95E2F7CA011E
:102CA00090915802892B8093580208958D3F21F40A
:102CB0008091560281600BC08E3F21F480915602B4
:102CC000826005C08F3F29F4809156028460809312
:102CD00056020895803F39F490915A0297FF35C00B
:102CE00010925A0259C0813F29F490915A02191644
:102CF000BCF32BC090915902823F29F497FF25C065
:102D00001092590249C0833F19F41916CCF31DC023
:102D100090915B02893F29F41916BCF410925B0272
:102D20003BC08A3F19F497FF10C0F8CF8B3F39F4AE
:102D300090915C0297FF09C010925C022DC08C3FFD
:102D400021F490915C021916BCF39CE0980F953029
:102D500080F421E030E0A90102C0440F551F9A958C
:102D6000E2F7CA0180959091580289238093580216
:102D700013C08D3F21F4809156028E7F0BC08E3F91
:102D800021F4809156028D7F05C08F3F29F48091F8
:102D900056028B7F8093560280915902811106C0A2
:102DA00080915A02811102C01092550280915B02FB
:102DB000811106C080915C02811102C01092540200
:102DC00008950E94C42020915902211104C020912D
:102DD0005A02222321F090935302809352022091B1
:102DE0005B02211104C020915C02222321F0909308
:102DF00051028093500287E592E00C94741FEF9289
:102E0000FF920F931F93CF93DF9300D000D000D099
:102E1000CDB7DEB786E0E7E5F2E0DE01119601907E
:102E20000D928A95E1F7E0905902F0905A020091D4
:102E30005B0210915C021092590210925A02109299
:102E40005B0210925C02E11003C0FF2009F45DC038
:102E500080915202909153020E94DC20AC0190912B
:102E60005502992339F02091270130E024173507C6
:102E700058F04BC0209128018AE0289F900111242E
:102E80002417350718F041C09F3F19F09F5F9093BA
:102E90005502EE2061F00E948D151E1414F09FEF74
:102EA00001C091E0989F902D112490935902FF202A
:102EB00061F00E948D151F1414F09FEF01C091E086
:102EC000989F902D112490935A02309159023323E8
:102ED000E1F020915A022223C1F045EB3403C001F6
:102EE0001124992319F09093590203C081E0809333
:102EF000590235EB2303C0011124992319F0909353
:102F00005A0203C081E080935A02011103C01123C9
:102F100009F45DC080915002909151020E94DC2022
:102F2000AC0190915402992339F02091230130E0B3
:102F30002417350758F04BC0209124018AE0289FC0
:102F4000900111242417350718F041C09F3F19F054
:102F50009F5F90935402002361F00E94D6151016D3
:102F600014F09FEF01C091E0989F902D1124909351
:102F70005B02112361F00E94D615111614F09FEF29
:102F800001C091E0989F902D112490935C023091A4
:102F90005B023323E1F020915C022223C1F045EB78
:102FA0003403C0011124992319F090935B0203C0EC
:102FB00081E080935B0235EB2303C0011124992348
:102FC00019F090935C0203C081E080935C028091D1
:102FD000590281110BC080915A02811107C0809162
:102FE0005B02811103C080915C0281110E94E11695
:102FF000EB82FC820D831E8386E0FE013196A7E5FD
:10300000B2E001900D928A95E1F726960FB6F894FA
:10301000DEBF0FBECDBFDF91CF911F910F91FF900B
:10302000EF900895E7E5F2E086E0DF011D928A95D2
:10303000E9F7109255021092540210925602089528
:1030400083E290E00E940529823281F484E290E0DC
:103050000E940529823051F485E290E00E94052902
:1030600091E0853009F090E0892F01C080E0817007
:103070000895CF93C82F811102C06FEF01C062E2A3
:1030800083E290E00E941329C11102C06FEF01C0DA
:1030900062E084E290E00E941329C11102C06FEF48
:1030A00001C065E085E290E0CF910C94132908956A
:1030B00086E290E00E940529682F70E080E090E0B1
:1030C000089586E290E00C94132980E00E9439185C
:1030D00060E070E0CB010E9461180E94A8190E9474
:1030E000871A81E00C9439180E9457180E94201802
:1030F000811102C00C9465180895CF93FB01C28121
:10310000CC23E9F09C0122513F452031310520F4C8
:1031100082510E94971A0CC08031FFE59F0751F43D
:1031200081E00E94F50843E062E081E00E944403F0
:10313000C0E018C081319F45A9F482E0F2CF803110
:10314000EFE59E0711F481E004C081319F4549F409
:1031500082E00E94000943E062E081E00E944403B3
:1031600001C0C1E08C2FCF9108952FEFFC01208387
:103170000895EF92FF920F931F93CF93DF93EC018B
:10318000062FE8818E2F90E0FC013197E331F105A5
:1031900008F091C0E059FF4F0C94CE28198289E0C5
:1031A0004DC08981823039F0833061F0813029F55A
:1031B0000E94D02002C00E9458189A838B837C837F
:1031C0006D837BC07E0182E0E80EF11C10E0812F50
:1031D0000E948511F70181937F011F5F1A30B9F7B3
:1031E0006CC08981823049F46A817B818C819D81A8
:1031F0000E94D4280E94611860C0602FCE010E94F6
:10320000B5185BC04B816A8189810E947A199C83C1
:103210008D8353C02C813D813227232732274B8158
:103220006A8189810E94931948C00E94A81945C0EB
:103230000E943A1A24C00E943C1A99838A833DC096
:103240006B8170E089819A81AE014C5F5F4F982756
:10325000892798270E943F1A30C06B8170E08981CE
:103260009A81AE014C5F5F4F9827892798270E946B
:10327000641A23C00E94871A20C00E94671989839C
:103280001CC06B8170E089819A81AE014C5F5F4FF9
:103290009827892798270E94E7190FC06B8170E053
:1032A00089819A81AE014C5F5F4F982789279827C3
:1032B0000E940B1A02C08FEF8883602FCE01DF912E
:1032C000CF911F910F91FF90EF900C94C32184E058
:1032D000089550E0440F551F2CE0629F400D511D92
:1032E00011249A0168E7869F200D311D1124C90120
:1032F000879608950F931F93CF93DF930E946919C8
:103300008C010E940529C82FD0E0DC2FCC27C801F2
:1033100001960E9405299E01282BC901DF91CF91BA
:103320001F910F9108950F931F93CF93DF93122F47
:10333000032F0E946919EC01602F0E941329612F4D
:10334000CE010196DF91CF911F910F910C9413291B
:10335000AF92BF92CF92DF92EF92FF920F931F93A3
:10336000CF93DF93A12CE12CF12CB12C00E010E0E5
:10337000C0E0D0E06701C00ED11EFE01EE0FFF1FBE
:10338000EC0DFD1DE65EFE4F259134914C2F6B2D0B
:103390008A2D0E9493192196C630D10571F7045FDA
:1033A0001F4FB3948AE0B812E3CF88E7E80EF11C10
:1033B000A39484E0A812D9CFDF91CF911F910F91F0
:1033C000FF90EF90DF90CF90BF90AF900895EF9275
:1033D000FF920F931F93CF93DF93EA017A01E60EDA
:1033E000F71E8C01C8018796CE15DF0569F0003EF7
:1033F00021E0120720F40E940529888301C0188269
:1034000021960F5F1F4FEECFDF91CF911F910F914C
:10341000FF90EF900895EF92FF920F931F93CF9339
:10342000DF93EA017A01E60EF71E8C01C801879648
:10343000CE15DF0559F0003E21E0120718F468812F
:103440000E94132921960F5F1F4FF0CFDF91CF917C
:103450001F910F91FF90EF900895462F843038F41C
:103460007A3028F4663018F4672F0C947A1980E0CB
:1034700090E0089580E1089589EF91E00895EF923A
:10348000FF920F931F93CF93DF93EA017A01E60E29
:10349000F71E8C01C801895F9D4FCE15DF0569F0CD
:1034A000093F21E0120720F40E940529888301C00A
:1034B000188221960F5F1F4FEDCFDF91CF911F91A3
:1034C0000F91FF90EF900895EF92FF920F931F934B
:1034D000CF93DF93EA017A01E60EF71E8C01C80153
:1034E000895F9D4FCE15DF0559F0093F21E0120796
:1034F00018F468810E94132921960F5F1F4FEFCFA8
:10350000DF91CF911F910F91FF90EF900895CF938E
:10351000DF93C7E0D2E060E0CE010E94132921963C
:10352000C11584E0D807B9F7DF91CF910895DF92F4
:10353000EF92FF920F931F93CF93DF9300D000D0B1
:10354000CDB7DEB7F82E8FE08F15E8F18FEF93E05F
:103550000E940529811137C007E012E0FF2069F0C1
:10356000011584E0180779F1C8010E94052981112D
:1035700001C0FA940F5F1F4FF1CF19821A821B828C
:103580001C82DD24D39478018FEFE81AF80AC80171
:103590000E94052989831A828823A9F09FEF980F3A
:1035A000933058F48A83D9820E5F1F4FC7010E945F
:1035B00005298B83882339F07801CE0101960E947A
:1035C0008D048701E0CF0F900F900F900F90DF9147
:1035D000CF911F910F91FF90EF90DF900895089584
:1035E000FC01680F791F8FEF91E3E617F70771F081
:1035F0002191822728E030E087FF03C0880F8927C8
:1036000001C0880F21503109B9F7EFCF08950F930A
:103610001F93CF93DF93C42FD22FFC018281882385
:10362000C9F040935F020E94C42090935E02809391
:103630005D0280E28C0F883008F057C0C77081E0CF
:1036400001C0880FCA95EAF7DF91CF911F910F91C2
:103650000C94230680915F02481330C080915D0274
:1036600090915E020E94DC20883C910538F510E2C2
:103670001D0FCD17B9F080E28C0F883040F4C77071
:1036800081E001C0880FCA95EAF70E942A06183027
:1036900028F581E09D2F977001C0880F9A95EAF771
:1036A0000E942306802F0E941A061830F0F4D7706B
:1036B00081E001C0880FDA95EAF70AC080E28C0F3A
:1036C000883098F4C77081E001C0880FCA95EAF786
:1036D000DF91CF911F910F910C942A06802FDF91DB
:1036E000CF911F910F910C941A06DF91CF911F91EA
:1036F0000F9108950F939C01CB01233F4CE53407B4
:1037000031F188F4283DFCE53F07D9F0293D4CE52F
:10371000340779F1273D3C45A9F506E221EE41EE5B
:1037200067ED7CE52BC0253FFCE53F07E1F0A8F005
:10373000263F3C4539F507E225EE46EE66EF7CE58F
:103740001DC007E225EE45EE68ED7CE517C006E2F8
:1037500021EE40EE63EF7CE511C007E225EE44EE7A
:1037600064EF7CE50BC006E221EE42EE65EF7CE5FE
:1037700005C008E221E045EE69ED7CE50E94071BEB
:1037800080E008C0FC018281882319F010925F025A
:1037900001C081E00F910895CF93DF93EC01FB010D
:1037A0008281882309F426C1C330FDE5DF0760F478
:1037B000CA3F9CE5D90768F49E0122503C4524315C
:1037C000310508F018C105C0C136EDE5DE0709F086
:1037D00012C10E94E70D9093770280937602C03168
:1037E000FCE5DF0709F4CAC008F041C0C8309CE519
:1037F000D90709F4A4C0F0F4C430FCE5DF0709F4EC
:103800008CC068F4C2309CE5D90709F482C0C3308B
:10381000DC4509F0E5C0809176028260DFC0C630E9
:10382000FCE5DF0709F483C008F085C080917602CB
:103830008860D4C0CC309CE5D90709F490C068F406
:10384000CA30FCE5DF0709F47EC008F084C00E949E
:103850007608809176028068C1C0CE309CE5D90799
:1038600009F481C008F086C08091760294C0CC3FF4
:10387000FCE5DF0709F47BC038F5C4319CE5D907C6
:1038800009F49AC058F4C231FCE5DF0709F47AC0A4
:1038900008F07EC0809176028F7BA0C0CA3F9CE575
:1038A000D907F1F108F03FC0C531DC4509F098C0F7
:1038B0008091760282FB222720F991E0922790FBEB
:1038C00082F990FB83F98AC0C1158DE5D80709F408
:1038D00067C050F480917702CE3FECE5DE07C1F17E
:1038E00008F05BC08D7F65C0C2308DE5D80709F454
:1038F00071C008F46DC0C136DD4509F071C080911A
:10390000760284FB222720F991E0922790FB84F92C
:1039100065C080917602816061C08091760216C098
:103920008091770216C080917702826042C08091B8
:103930007602806153C08091760280624FC0809190
:10394000760280644BC0809176028860846046C0B5
:10395000826081602EC0809176028E7F3FC0809110
:1039600076028D7F3BC080917602877F37C0809141
:10397000770214C0809176028F7E30C080917602EB
:103980008F7D2CC00E947608809176028F7726C0AA
:1039900080917602877F8B7F21C08D7F8E7F09C0CB
:1039A00080917702982F909591708E7F892B90FB54
:1039B00081F98093770214C00E9476088091760284
:1039C00087FB222720F991E0922790FB87F906C018
:1039D00081E001C080E00E947D0E02C080937602EB
:1039E00080917602909177020E94F80D0E947608ED
:1039F00080E001C081E0DF91CF910895CF93DF9304
:103A000086319C4541F5EB010E941C0D982F8A815F
:103A10002091000130910101882379F09A7A81E0A8
:103A200009F480E080936002911102C069E201C054
:103A300065E3C9010E94F01F0AC0809160028111F4
:103A400002C069E201C065E3C9010E94F21F0E9441
:103A5000610D80E001C081E0DF91CF9108958EE19A
:103A60004A9B02C08150E1F74A9BFECF08955A98C5
:103A700080E28A95F1F75A9A0895FC012AE02A9586
:103A8000F1F728E090E080E031E040E14A95F1F77D
:103A9000880F4A9B02C08160932700C0000040E16C
:103AA0004A95F1F7215089F720E12A95F1F729B1DC
:103AB00000C0000030E13A95F1F722FB222720F9FF
:103AC00092272081920F90830895EF92FF920F9397
:103AD0001F93CF93DF931F92CDB7DEB719828C016E
:103AE0007C01E60EF11C0E151F0551F00E942F1DE2
:103AF000CE0101960E943D1DF80181938F01F3CF05
:103B000081E09981911180E00F90DF91CF911F9119
:103B10000F91FF90EF900895529A5A9A08955298F3
:103B20005A9AEA9AE9E6F0E080818F7C80830895D2
:103B3000615091E001C0990F6A95EAF720E031E009
:103B4000992361F0492F482319F05A9A232701C07D
:103B50005A9840E24A95F1F79695F2CF222311F058
:103B60005A9A01C05A9880E28A95F1F75A980895B6
:103B7000FF920F931F93CF93DF93EC018C01060FFD
:103B8000111DC017D10741F0F9900E94371D68E060
:103B90008F2D0E94981DF5CFDF91CF911F910F912E
:103BA000FF9008951F920F920FB60F921124EF927B
:103BB000FF920F931F932F933F934F935F936F93B6
:103BC0007F938F939F93AF93BF93EF93FF93CF9385
:103BD000DF931F92CDB7DEB719820E942F1DCE0151
:103BE00001960E943D1DA82FA695A695A6959A2FF1
:103BF000969595702A2F2570920F292F23709695F0
:103C00009695920F877089137CC08981811179C044
:103C1000A43008F076C080E18A95F1F75A9A529A5A
:103C2000B2E0BA95F1F700C05A98EA2EF12CEAE01A
:103C3000AE9FD0011124AD5FBE4F1896ED91FC915F
:103C400019973097B1F06091A6017091A70116966F
:103C50002D913C911797260F371F13968D919C91AC
:103C60001497680F791F15964C91159712968C91A1
:103C700009958AE08E9DF0018F9DF00D1124ED5F76
:103C8000FE4F6581662351F08091A6019091A701B6
:103C900026813781820F931F0E94B81D0E94371D15
:103CA000F0E1FA95F1F75A9852985A9A80E18A957C
:103CB000F1F78AE08E9D80018F9D100D11240D5F1C
:103CC0001E4FD80112966C911297662399F080913D
:103CD000A6019091A70113962D913C911497820F04
:103CE000931F0E94651DD801ED91FC91811105C0C3
:103CF00082E004C0D801ED91FC9188E080830E94AD
:103D00002F1D0F90DF91CF91FF91EF91BF91AF9158
:103D10009F918F917F916F915F914F913F912F91E3
:103D20001F910F91FF90EF900F900FBE0F901F907B
:103D300018950F931F93CF93DF93843091050CF068
:103D4000A9C02AE0289FF001299FF00D1124ED5F02
:103D5000FE4F20813181232B09F49CC0EC01F894A3
:103D6000529A5A9885E08A95F1F700008C2F869533
:103D700085709C2F9570890F982F937086958695E6
:103D80008E0123E0000F111F2A95E1F7890F082B00
:103D90000E94371DA4E0AA95F1F700C068E0802FCB
:103DA0000E94981DB0E1BA95F1F752985A9A4A9933
:103DB00002C000C0FCCF87E090E04A9B17C001978B
:103DC00099F4529A5A9A8AE08C9FF0018D9FF00DD7
:103DD0001124ED5FFE4F0190F081E02D81E08083A2
:103DE000789481E090E058C000C0E7CF8AE08C9FD3
:103DF00080018D9F100D11240D5F1E4FF80165810C
:103E00006623B9F08091A6019091A70126813781A0
:103E1000820F931F0E94651D81110BC0529A5A9AFE
:103E2000D801ED91FC9182E08083789482E090E06B
:103E300033C00E942F1DB0E2BA95F1F75A98529AFA
:103E4000E0E1EA95F1F78AE08C9FF0018D9FF00D9B
:103E50001124ED5FFE4F6281662351F08091A6012F
:103E60009091A70123813481820F931F0E94B81D76
:103E70000E94371D8AE08C9FF0018D9FF00D112468
:103E8000ED5FFE4F0190F081E02D1082789480E08C
:103E900090E002C084E090E0DF91CF911F910F91FC
:103EA0000895909367028093660208950E945013CC
:103EB000811103C0809161020895E0916602F09142
:103EC0006702309721F00190F081E02D099480E0A5
:103ED0000895E0916602F0916702309721F0028028
:103EE000F381E02D09940895E0916602F091670254
:103EF000309739F022E0DC012C930480F581E02D2D
:103F000009940895209164023091650228173907B9
:103F100071F09093650280936402E0916602F091E3
:103F20006702309721F00680F781E02D099408950B
:103F300020916202309163022817390771F0909343
:103F4000630280936202E0916602F091670230970B
:103F500021F00084F185E02D09940895FC0132964A
:103F600097E080E0915029F021912223D9F38F5FCF
:103F7000F9CF0895662349F0FC0132960896219105
:103F8000621729F0E817F907D1F780E0089581E07A
:103F900008959C01FC0132969FEF80E04191461705
:103FA00089F09F3F19F4411101C0982F8F5F86302F
:103FB000A9F79F3F39F0F901E90FF11D97FDFA9537
:103FC0006283089508959C012A5F3F4FFC0142815E
:103FD000461301C01282019682179307B9F708951C
:103FE0000C94C91F0C94E31F029626E0FC01119269
:103FF0002A95E9F7089510928F021092900210927C
:104000009102109292020895CF92DF92EF92FF9266
:104010006B017C010E94501381110EC00E94D020C0
:10402000C61AD70AE80AF90AC0928F02D092900203
:10403000E0929102F0929202FF90EF90DF90CF9089
:1040400008950F931F930E945013882321F01F910E
:104050000F910C94D0200E94D02000918F021091DB
:1040600090022091910230919202600F711F821F85
:10407000931F1F910F910895089508950C943D206A
:104080000C943D20CF930E9440200E94C5120E94B4
:104090003E20C0E08C2F0E948511811104C0CF5FAB
:1040A000CA30C1F701C081E0CF9108950C943D2042
:1040B0000C94562080919B02843049F10E94582034
:1040C00080E00E9498041092680220E488E190E069
:1040D0000FB6F894A895809360000FBE20936000FF
:1040E00083B7817F846083BF83B7816083BF789407
:1040F000889583B78E7F83BF0FB6F894A89580917B
:104100006000886180936000109260000FBE089587
:104110000C943D200E9476080E94561F0E9498042D
:104120000C9488201F920F920FB60F9211248F9338
:104130009F93AF93BF9380916802811113C08091C8
:10414000930290919402A0919502B09196024196AB
:10415000A11DB11D8093930290939402A0939502A8
:10416000B0939602BF91AF919F918F910F900FBE28
:104170000F901F90189582E084BD93E095BD9AEF53
:1041800097BD80936E0008952FB7F89480919302A5
:1041900090919402A0919502B09196022FBF08953C
:1041A0002FB7F894609193027091940280919502D8
:1041B000909196022FBF08959C014FB7F89480917B
:1041C000930290919402A0919502B09196024FBFF4
:1041D000821B930B0895CF92DF92EF92FF922FB73D
:1041E000F894C0909302D0909402E0909502F090E1
:1041F00096022FBFA7019601261B370B480B590BC0
:10420000CA01B901FF90EF90DF90CF9008957894A4
:104210001F920F920FB60F9211248F939F93AF931B
:10422000BF938091930290919402A0919502B091D6
:1042300096020196A11DB11D809393029093940262
:10424000A0939502B0939602BF91AF919F918F91E9
:104250000F900FBE0F901F90189587E797E79093E8
:104260000108809300089AE088E10FB6F894A895B9
:10427000809360000FBE90936000FFCF9093B901D0
:104280008093B801089580917402089590919B02E3
:10429000943029F58093690270936B0260936A02EF
:1042A0009093E9008FEF9091E800815095FD06C052
:1042B00095ED9A95F1F700008111F5CF8091E80016
:1042C00085FF0DC040E050E063E070E089E692E0D9
:1042D0000E94BF238091E8008E778093E8000895C4
:1042E000BC0184E00C944621BC0183E00C9446217F
:1042F00024E02093E9002FEF3091E800215035FDB4
:1043000006C035ED3A95F1F700002111F5CF209167
:10431000E80025FF0BC040E050E066E070E00E943E
:10432000BF238091E8008E778093E8000895CF93B3
:10433000DF9321E02093E9002FEF3091E800215036
:1043400035FD06C035ED3A95F1F700002111F5CFA6
:104350002091E80025FF14C0EC0140E050E068E047
:1043600070E00E94BF238091E8008E778093E80080
:1043700088E0FE01ACE6B2E001900D928A95E1F78B
:10438000DF91CF910895CF93603219F520919B0270
:104390002430F9F4C091E900CF703091EC00232F64
:1043A000217030FD20E8C22B22E02093E90020910B
:1043B000E80020FF0BC040E050E060E270E00E94A7
:1043C000BF238091E8008E778093E800CF70C09380
:1043D000E900CF91089580919A02811109C00E944D
:1043E0009B250E94F8258091E20084608093E20082
:1043F000089510929A02089508950895089542E04C
:1044000061EC81E00E94142542E261EC84E00E94AC
:10441000142542E261EC82E00E94142542E260EC45
:1044200083E00C94142580919D02833009F462C0CE
:1044300030F4813071F0823009F49BC008958A30E5
:1044400009F487C08B3009F46DC0893009F0A9C028
:1044500020C080919C02813A09F0A3C08091E800BD
:10446000877F8093E8008091A0029091A102892B20
:1044700021F468E08CE692E003C060E080E090E028
:1044800070E00E9455248091E8008B778093E800CB
:10449000089580919C02813209F083C08091A0022E
:1044A0009091A102009719F0029709F07AC08091CB
:1044B000E800877F8093E8008091E80082FD05C0D6
:1044C00080919B028111F8CF6CC02091F300809104
:1044D000F20090E0922B029729F48091F1008B7FFB
:1044E000813021F48091F100809374028091E80082
:1044F0008B7753C080919C02813A09F052C0809121
:10450000A0029091A102892B09F04BC08091E80094
:10451000877F8093E8008091E80080FFFCCF809146
:10452000330136C080919C028132D9F58091A0027E
:104530009091A102892BA9F58091E800877F809353
:10454000E8000E94492580919E02809333010C94DB
:10455000760880919C02813221F58091E800877F66
:104560008093E8000E94492580919F028093750204
:10457000089580919C02813AA1F48091E800877FA0
:104580008093E8008091E80080FFFCCF8091750265
:104590008093F1008091E8008E778093E8000C947E
:1045A0004925089584B7877F84BF0FB6F894A895EE
:1045B00080916000886180936000109260000FBE5F
:1045C00090E080E80FB6F8948093610090936100CA
:1045D0000FBE0C94AB0E0E949B250E94F825E2EEC4
:1045E000F0E080818460808378940E948D280E940E
:1045F000B90E89E291E00C94511FCF93DF93CDB7B0
:10460000DEB7A0970FB6F894DEBF0FBECDBF809186
:104610009B028530A9F480919B02853079F40E9439
:104620005A20809199028823B1F30E944220882366
:1046300091F30E94A9230E947608EDCF0E948A2060
:104640000E94C50E80919B02843011F583E0809317
:10465000E9008091E80082FF1BC08091E80085FF9F
:104660000AC040E050E060E270E0CE0101960E9496
:104670000A2491E001C090E08091E8008B7780935C
:10468000E800992329F060E2CE0101960E94B91852
:10469000A0960FB6F894DEBF0FBECDBFDF91CF91CD
:1046A00008950C945323292F332723303105C9F063
:1046B00060F42130310581F02230310509F041C02C
:1046C0008BE590E02CEC33E040C021323105E1F085
:1046D0002232310531F135C082E190E027E234E049
:1046E00034C099278130910549F028F0029749F5A7
:1046F000EAEAF3E005C0E8ECF3E002C0ECEBF3E03B
:10470000849190E09F0121C063307105D0F4660F61
:10471000771FFB01EF54FE4F2081318189E090E04B
:1047200014C06330710568F4FB01EE0FFF1FE555FF
:10473000FE4F20813181FB01E855FE4F808190E0E2
:1047400004C080E090E020E030E0FA013183208373
:10475000089580E189BD82E189BD09B400FEFDCFE5
:104760008091D8008F7D8093D8008091E000826096
:104770008093E0008091E00081FDFCCF0895CF920E
:10478000DF92EF92FF920F931F93CF93DF93EC0191
:104790008B017A010E946825811133C0E114F10474
:1047A00039F0F70180819181081B190BC80FD91FBF
:1047B000C12CD12C0115110519F18091E80085FD5E
:1047C00016C08091E8008E778093E800E114F10430
:1047D00049F0F70180819181C80ED91ED182C08233
:1047E00085E00FC00E946825882321F30AC08991C3
:1047F0008093F10001501109FFEFCF1ADF0ADACFE1
:1048000080E0DF91CF911F910F91FF90EF90DF90AB
:10481000CF900895CF92DF92EF92FF920F931F9364
:10482000CF93DF93EC018B017A010E9468258111FF
:1048300033C0E114F10439F0F70180819181081B44
:10484000190BC80FD91FC12CD12C0115110519F155
:104850008091E80085FD16C08091E8008B778093F9
:10486000E800E114F10449F0F70180819181C80E5C
:10487000D91ED182C08285E00FC00E94682588239E
:1048800021F30AC08091F100899301501109FFEFD3
:10489000CF1ADF0ADACF80E0DF91CF911F910F911D
:1048A000FF90EF90DF90CF9008952091A202309179
:1048B000A3022617370748F06115710539F42091D6
:1048C000E8002E772093E80001C0B901FC0120E048
:1048D0006115710579F180919B028823F1F1853092
:1048E000F1F18091E80083FD3CC08091E80082FDF9
:1048F0002EC08091E80080FFEBCF2091F3008091E3
:10490000F20090E0922B6115710551F0883091050D
:1049100038F421912093F100615071090196F3CF91
:1049200021E0089709F020E08091E8008E778093DD
:10493000E800CECF2111CFCF0AC080919B028823FF
:1049400061F0853061F08091E80083FD0AC08091BC
:10495000E80082FFF2CF80E0089582E0089583E0CE
:10496000089581E008952091A2023091A3022617B4
:10497000370748F06115710539F42091E8002E776A
:104980002093E80001C0B901FC0120E06115710528
:1049900091F180919B02882309F440C0853009F48D
:1049A0003FC08091E80083FD3DC08091E80082FD1A
:1049B0002FC08091E80080FFE9CF2091F300809123
:1049C000F20090E0922B6115710559F08830910545
:1049D00040F424912093F1003196615071090196C1
:1049E000F2CF21E0089709F020E08091E8008E776F
:1049F0008093E800CBCF2111CCCF0AC080919B02DD
:104A0000882361F0853061F08091E80083FD0AC061
:104A10008091E80082FFF2CF80E0089582E008955F
:104A200083E0089581E00895982F973068F590937A
:104A3000E900981739F07091EC002091ED00509149
:104A4000F00003C0242F762F50E021FD02C09F5FAD
:104A5000ECCF3091EB003E7F3093EB003091ED00D6
:104A60003D7F3093ED003091EB0031603093EB00EF
:104A70007093EC002093ED005093F0002091EE0035
:104A800027FDE5CF80E008958F708093E90081E0F5
:104A9000089580919C0287FF11C08091E80082FDFB
:104AA00005C080919B028111F8CF11C08091E80070
:104AB0008B770BC080919B02882349F08091E8009E
:104AC00080FFF8CF8091E8008E778093E80008950A
:104AD0002091E4003091E50095E64091EC00842FB0
:104AE000817040FF23C08091E80080FD1DC080914F
:104AF0009B02882399F0853099F08091EB0085FD29
:104B000011C04091E4005091E5002417350729F3C6
:104B1000915011F09A01E1CF84E0089582E0089568
:104B200083E0089581E0089580E008954091E800D1
:104B300042FFDDCF08950E9409260E941126E0EE73
:104B4000F0E0808181608083E8EDF0E080818F7704
:104B5000808319BCA7EDB0E08C918E7F8C9380810F
:104B60008F7E808310929A0208950F931F93CF93A4
:104B7000DF930E9409260E941126C8EDD0E08881AB
:104B80008F77888388818068888388818F7D8883F8
:104B900019BC10929B0210929702109299021092E7
:104BA000980200EE10E0F80180818B7F808388817D
:104BB0008160888342E060E080E00E941425E1EE9D
:104BC000F0E080818E7F8083E2EEF0E08081816082
:104BD0008083808188608083F80180818E7F8083DC
:104BE000888180618883DF91CF911F910F91089513
:104BF000E8EDF0E080818F7E8083E7EDF0E080815A
:104C00008160808384E082BF81E080939A020C946B
:104C1000B525E8EDF0E080818E7F80831092E20080
:104C200008951092DA001092E10008951F920F92F9
:104C30000FB60F9211242F933F934F935F936F936F
:104C40007F938F939F93AF93BF93EF93FF93809145
:104C5000E10082FF0BC08091E20082FF07C08091DB
:104C6000E1008B7F8093E1000E948C288091DA0024
:104C700080FF1FC08091D80080FF1BC08091DA00A8
:104C80008E7F8093DA008091D90080FF0DC080E193
:104C900089BD82E189BD09B400FEFDCF81E080932A
:104CA0009B020E94EB2105C019BC10929B020E943E
:104CB000F9218091E10080FF19C08091E20080FF1E
:104CC00015C08091E2008E7F8093E2008091E20027
:104CD00080618093E2008091D80080628093D80048
:104CE00019BC85E080939B020E94FD218091E10028
:104CF00084FF30C08091E20084FF2CC080E189BD38
:104D000082E189BD09B400FEFDCF8091D8008F7D7E
:104D10008093D8008091E1008F7E8093E1008091A4
:104D2000E2008F7E8093E2008091E20081608093B8
:104D3000E20080919702882311F084E007C08091FF
:104D4000E30087FD02C081E001C083E080939B0205
:104D50000E94FE218091E10083FF29C08091E20042
:104D600083FF25C08091E100877F8093E10082E08E
:104D700080939B02109297028091E1008E7F809336
:104D8000E1008091E2008E7F8093E2008091E2005A
:104D900080618093E20042E060E080E00E941425A0
:104DA0008091F00088608093F0000E94FC21FF91C8
:104DB000EF91BF91AF919F918F917F916F915F9193
:104DC0004F913F912F910F900FBE0F901F9018950C
:104DD0001F920F920FB60F9211242F933F934F9370
:104DE0005F936F937F938F939F93AF93BF93CF9373
:104DF000DF93EF93FF93C091E900CF708091EC00B7
:104E0000D82FD17080FDD0E81092E9008091F00099
:104E1000877F8093F00078940E942C271092E900FD
:104E20008091F00088608093F000CD2BCF70C0930C
:104E3000E900FF91EF91DF91CF91BF91AF919F91E9
:104E40008F917F916F915F914F913F912F910F9033
:104E50000FBE0F901F9018951F93CF93DF93CDB780
:104E6000DEB7AA970FB6F894DEBF0FBECDBFECE950
:104E7000F2E08091F100819322E0E43AF207C9F771
:104E80000E9413228091E80083FF2EC180919C0232
:104E900090919D02492F50E04A30510508F024C1FD
:104EA000FA01ED57FF4F0C94CE28803821F082385C
:104EB00009F01AC108C08091980290919902992333
:104EC00089F082600FC08091A0028F70873008F057
:104ED0000BC18093E9008091EB0085FB882780F966
:104EE0001092E9009091E800977F9093E8008093FA
:104EF000F1001092F100D1C0282F2D7F09F0F4C0ED
:104F0000882319F0823061F0EFC080919E028130D9
:104F100009F0EAC0933009F080E0809399022EC036
:104F200080919E0281112AC08091A0028F702FEF84
:104F3000280F263008F0D8C08093E9002091EB00BC
:104F400020FF1CC0933021F48091EB00806214C0DC
:104F50009091EB0090619093EB0021E030E0A9018B
:104F600002C0440F551F8A95E2F74093EA00109261
:104F7000EA008091EB0088608093EB001092E900DA
:104F80008091E800877F8093E8000E944925ACC0AB
:104F90008111AAC010919E021F778091E300807852
:104FA000812B8093E3008091E800877F8093E80065
:104FB0000E9449258091E80080FFFCCF8091E300AA
:104FC00080688093E300111102C082E001C083E099
:104FD00080939B0289C08058823008F085C0809100
:104FE0009E0290919F028C3D53E0950779F583E0F6
:104FF0008A838AE289834FB7F894DE01139620E012
:105000003EE051E2E32FF0E050935700E49120FF9F
:1050100003C0E295EF703F5FEF708E2F90E0EA30B3
:1050200010F0C79601C0C0968D939D932F5F2431D9
:1050300049F74FBF8091E800877F8093E8006AE2DC
:1050400070E0CE0101960E94552416C06091A00226
:105050007091A102AE014F5F5F4F0E945123BC01CE
:10506000892B09F441C09091E800977F9093E80064
:1050700089819A810E94B3248091E8008B77809384
:10508000E80032C0803881F58091E800877F809306
:10509000E800809197028093F1008091E8008E777C
:1050A00072CF811121C080919E0290919F02992719
:1050B0000297D4F48091E800877F8093E800809184
:1050C0009E02809397020E94492580919702811148
:1050D00006C08091E30087FD02C081E001C084E04A
:1050E00080939B020E94FF218091E80083FF0AC009
:1050F0008091E800877F8093E8008091EB008062D8
:105100008093EB00AA960FB6F894DEBF0FBECDBF1A
:10511000DF91CF911F9108950895CF9380919B02C5
:105120008823A1F0C091E900CF709091EC00892F05
:10513000817090FD80E8C82B1092E9008091E80012
:1051400083FD0E942C27CF70C093E900CF91089572
:105150000E949B2510929B020895E8EDF0E080816B
:10516000806180838AE18A95F1F700C08091D9003F
:105170008170089597FB072E16F4009407D077FDF1
:1051800009D00E94DB2807FC05D03EF4909581955C
:105190009F4F0895709561957F4F0895EE0FFF1F03
:1051A0000590F491E02D09946927962769277827BF
:1051B000872778270895AA1BBB1B51E107C0AA1FA8
:1051C000BB1FA617B70710F0A61BB70B881F991FA8
:1051D0005A95A9F780959095BC01CD010895FB01E2
:1051E000DC0104C08D910190801921F441505040A0
:1051F000C8F7881B990B0895FB01DC0102C00190E0
:105200000D9241505040D8F70895F999FECF92BDC4
:1052100081BDF89A992780B50895A8E1B0E042E0F1
:1052200050E00C943929262FF999FECF92BD81BD0B
:10523000F89A019700B4021639F01FBA20BD0FB6D4
:10524000F894FA9AF99A0FBE08950396272F0E94B0
:1052500014290E941329252F0E941429242F0C940D
:1052600014290196272F0E9414290C941329DC017C
:10527000CB01FC01F999FECF06C0F2BDE1BDF89A61
:10528000319600B40D9241505040B8F70895F8940B
:02529000FFCF4E
:105292000F02018E0200000001000000008E0200D9
:1052A200000005010000008E02040600000000005C
:1052B200002808641E140A321E43219721782174A3
:1052C20021702101E200E900EA00B500B600B70052
:1052D200CD008301CC008A019201940121022302B4
:1052E20024022502260227022A02B300B4006F001C
:1052F2007000818283E200E900EA00B500B600B7DF
:1053020000CD008301CC008A019201940121022385
:105312000224022502260227022A02B300B4006FE9
:10532200007000818283946697C63435F731333238
:10533200360000000000350240227BD60439045BAF
:0853420004DE03F70317040069
:00000001FF
